{
  "contractName": "LandRegistry",
  "abi": [
    {
      "anonymous": false,
      "inputs": [
        {
          "indexed": false,
          "internalType": "uint256",
          "name": "propertyId",
          "type": "uint256"
        },
        {
          "indexed": true,
          "internalType": "address",
          "name": "previousOwner",
          "type": "address"
        },
        {
          "indexed": true,
          "internalType": "address",
          "name": "newOwner",
          "type": "address"
        }
      ],
      "name": "ownershipTransferred",
      "type": "event"
    },
    {
      "anonymous": false,
      "inputs": [
        {
          "indexed": false,
          "internalType": "uint256",
          "name": "propertyId",
          "type": "uint256"
        },
        {
          "indexed": false,
          "internalType": "address",
          "name": "currentOwner",
          "type": "address"
        },
        {
          "indexed": false,
          "internalType": "string",
          "name": "location",
          "type": "string"
        },
        {
          "indexed": false,
          "internalType": "uint256",
          "name": "size",
          "type": "uint256"
        }
      ],
      "name": "propertyAdded",
      "type": "event"
    },
    {
      "inputs": [
        {
          "internalType": "uint256",
          "name": "",
          "type": "uint256"
        }
      ],
      "name": "properties",
      "outputs": [
        {
          "internalType": "uint256",
          "name": "propertyId",
          "type": "uint256"
        },
        {
          "internalType": "address",
          "name": "currentOwner",
          "type": "address"
        },
        {
          "internalType": "string",
          "name": "location",
          "type": "string"
        },
        {
          "internalType": "uint256",
          "name": "size",
          "type": "uint256"
        }
      ],
      "stateMutability": "view",
      "type": "function",
      "constant": true
    },
    {
      "inputs": [],
      "name": "propertyCount",
      "outputs": [
        {
          "internalType": "uint256",
          "name": "",
          "type": "uint256"
        }
      ],
      "stateMutability": "view",
      "type": "function",
      "constant": true
    },
    {
      "inputs": [
        {
          "internalType": "string",
          "name": "_location",
          "type": "string"
        },
        {
          "internalType": "uint256",
          "name": "_size",
          "type": "uint256"
        }
      ],
      "name": "addProperty",
      "outputs": [],
      "stateMutability": "nonpayable",
      "type": "function"
    },
    {
      "inputs": [
        {
          "internalType": "uint256",
          "name": "_propertyId",
          "type": "uint256"
        },
        {
          "internalType": "address",
          "name": "_newOwner",
          "type": "address"
        }
      ],
      "name": "transferOwnership",
      "outputs": [],
      "stateMutability": "nonpayable",
      "type": "function"
    }
  ],
  "bytecode": "0x608060405234801561000f575f80fd5b50610bb68061001d5f395ff3fe608060405234801561000f575f80fd5b506004361061004a575f3560e01c806329507f731461004e578063c361a3351461006a578063f54e1aef14610088578063f7b10808146100a4575b5f80fd5b610068600480360381019061006391906104bb565b6100d7565b005b610072610231565b60405161007f9190610508565b60405180910390f35b6100a2600480360381019061009d919061065d565b610237565b005b6100be60048036038101906100b991906106b7565b61034d565b6040516100ce949392919061076b565b60405180910390f35b3373ffffffffffffffffffffffffffffffffffffffff165f808481526020019081526020015f206001015f9054906101000a900473ffffffffffffffffffffffffffffffffffffffff1673ffffffffffffffffffffffffffffffffffffffff1614610177576040517f08c379a000000000000000000000000000000000000000000000000000000000815260040161016e90610825565b60405180910390fd5b805f808481526020019081526020015f206001015f6101000a81548173ffffffffffffffffffffffffffffffffffffffff021916908373ffffffffffffffffffffffffffffffffffffffff1602179055508073ffffffffffffffffffffffffffffffffffffffff163373ffffffffffffffffffffffffffffffffffffffff167f5c575e29988966bfbedafb67b7705b13166019c35ffdf6b1474dec18b61a86e9846040516102259190610508565b60405180910390a35050565b60015481565b60015f81548092919061024990610870565b9190505550604051806080016040528060015481526020013373ffffffffffffffffffffffffffffffffffffffff168152602001838152602001828152505f8060015481526020019081526020015f205f820151815f01556020820151816001015f6101000a81548173ffffffffffffffffffffffffffffffffffffffff021916908373ffffffffffffffffffffffffffffffffffffffff16021790555060408201518160020190816102fc9190610ab1565b50606082015181600301559050507f2a70c8dbe25859bb72180f828975292da0621cc90b2c507b382280cfb6a1778b600154338484604051610341949392919061076b565b60405180910390a15050565b5f602052805f5260405f205f91509050805f015490806001015f9054906101000a900473ffffffffffffffffffffffffffffffffffffffff1690806002018054610396906108e4565b80601f01602080910402602001604051908101604052809291908181526020018280546103c2906108e4565b801561040d5780601f106103e45761010080835404028352916020019161040d565b820191905f5260205f20905b8154815290600101906020018083116103f057829003601f168201915b5050505050908060030154905084565b5f604051905090565b5f80fd5b5f80fd5b5f819050919050565b6104408161042e565b811461044a575f80fd5b50565b5f8135905061045b81610437565b92915050565b5f73ffffffffffffffffffffffffffffffffffffffff82169050919050565b5f61048a82610461565b9050919050565b61049a81610480565b81146104a4575f80fd5b50565b5f813590506104b581610491565b92915050565b5f80604083850312156104d1576104d0610426565b5b5f6104de8582860161044d565b92505060206104ef858286016104a7565b9150509250929050565b6105028161042e565b82525050565b5f60208201905061051b5f8301846104f9565b92915050565b5f80fd5b5f80fd5b5f601f19601f8301169050919050565b7f4e487b71000000000000000000000000000000000000000000000000000000005f52604160045260245ffd5b61056f82610529565b810181811067ffffffffffffffff8211171561058e5761058d610539565b5b80604052505050565b5f6105a061041d565b90506105ac8282610566565b919050565b5f67ffffffffffffffff8211156105cb576105ca610539565b5b6105d482610529565b9050602081019050919050565b828183375f83830152505050565b5f6106016105fc846105b1565b610597565b90508281526020810184848401111561061d5761061c610525565b5b6106288482856105e1565b509392505050565b5f82601f83011261064457610643610521565b5b81356106548482602086016105ef565b91505092915050565b5f806040838503121561067357610672610426565b5b5f83013567ffffffffffffffff8111156106905761068f61042a565b5b61069c85828601610630565b92505060206106ad8582860161044d565b9150509250929050565b5f602082840312156106cc576106cb610426565b5b5f6106d98482850161044d565b91505092915050565b6106eb81610480565b82525050565b5f81519050919050565b5f82825260208201905092915050565b5f5b8381101561072857808201518184015260208101905061070d565b5f8484015250505050565b5f61073d826106f1565b61074781856106fb565b935061075781856020860161070b565b61076081610529565b840191505092915050565b5f60808201905061077e5f8301876104f9565b61078b60208301866106e2565b818103604083015261079d8185610733565b90506107ac60608301846104f9565b95945050505050565b7f4f6e6c79207468652063757272656e74206f776e65722063616e207472616e735f8201527f6665722070726f70657274790000000000000000000000000000000000000000602082015250565b5f61080f602c836106fb565b915061081a826107b5565b604082019050919050565b5f6020820190508181035f83015261083c81610803565b9050919050565b7f4e487b71000000000000000000000000000000000000000000000000000000005f52601160045260245ffd5b5f61087a8261042e565b91507fffffffffffffffffffffffffffffffffffffffffffffffffffffffffffffffff82036108ac576108ab610843565b5b600182019050919050565b7f4e487b71000000000000000000000000000000000000000000000000000000005f52602260045260245ffd5b5f60028204905060018216806108fb57607f821691505b60208210810361090e5761090d6108b7565b5b50919050565b5f819050815f5260205f209050919050565b5f6020601f8301049050919050565b5f82821b905092915050565b5f600883026109707fffffffffffffffffffffffffffffffffffffffffffffffffffffffffffffffff82610935565b61097a8683610935565b95508019841693508086168417925050509392505050565b5f819050919050565b5f6109b56109b06109ab8461042e565b610992565b61042e565b9050919050565b5f819050919050565b6109ce8361099b565b6109e26109da826109bc565b848454610941565b825550505050565b5f90565b6109f66109ea565b610a018184846109c5565b505050565b5b81811015610a2457610a195f826109ee565b600181019050610a07565b5050565b601f821115610a6957610a3a81610914565b610a4384610926565b81016020851015610a52578190505b610a66610a5e85610926565b830182610a06565b50505b505050565b5f82821c905092915050565b5f610a895f1984600802610a6e565b1980831691505092915050565b5f610aa18383610a7a565b9150826002028217905092915050565b610aba826106f1565b67ffffffffffffffff811115610ad357610ad2610539565b5b610add82546108e4565b610ae8828285610a28565b5f60209050601f831160018114610b19575f8415610b07578287015190505b610b118582610a96565b865550610b78565b601f198416610b2786610914565b5f5b82811015610b4e57848901518255600182019150602085019450602081019050610b29565b86831015610b6b5784890151610b67601f891682610a7a565b8355505b6001600288020188555050505b50505050505056fea26469706673582212208557e2f80e185d41d442a8e29f8af9faf270e1421323990087f761081f88cb2c64736f6c63430008140033",
  "immutableReferences": {},
  "source": "// SPDX-License-Identifier: UNLICENSED\npragma solidity >=0.4.22 <0.9.0;\n\ncontract LandRegistry {\n    struct Property {\n        uint256 propertyId;\n        address currentOwner;\n        string location;\n        uint256 size;\n    }\n\n    mapping(uint256 => Property) public properties;\n    uint256 public propertyCount;\n\n    event propertyAdded(uint256 propertyId, address currentOwner, string location, uint256 size);\n    event ownershipTransferred(uint256 propertyId, address indexed previousOwner, address indexed newOwner);\n\n    function addProperty(string memory _location, uint256 _size) public {\n        propertyCount ++;\n        properties[propertyCount] = Property(propertyCount, msg.sender, _location, _size);\n        emit propertyAdded(propertyCount, msg.sender, _location, _size);\n    }\n\n    function transferOwnership(uint256 _propertyId, address _newOwner) public {\n        require(properties[_propertyId].currentOwner == msg.sender, \"Only the current owner can transfer property\");\n        properties[_propertyId].currentOwner = _newOwner;\n        emit ownershipTransferred(_propertyId, msg.sender, _newOwner);\n    }\n}\n",
  "sourcePath": "/Users/ywen/Desktop/23T2/comp6452/project2/land-title/contracts/land1.sol",
  "compiler": {
    "name": "solc",
    "version": "0.8.20+commit.a1b79de6.Emscripten.clang"
  },
  "schemaVersion": "3.4.14",
  "updatedAt": "2023-07-16T12:10:21.458Z",
  "networkType": "ethereum",
  "devdoc": {
    "kind": "dev",
    "methods": {},
    "version": 1
  },
  "userdoc": {
    "kind": "user",
    "methods": {},
    "version": 1
  }
}