{
  "contractName": "propertiesRegistration",
  "abi": [
    {
      "inputs": [],
      "stateMutability": "nonpayable",
      "type": "constructor"
    },
    {
      "inputs": [
        {
          "internalType": "string",
          "name": "_city",
          "type": "string"
        },
        {
          "internalType": "string",
          "name": "_district",
          "type": "string"
        },
        {
          "internalType": "string",
          "name": "_detail",
          "type": "string"
        },
        {
          "internalType": "address payable",
          "name": "_OwnerAddress",
          "type": "address"
        }
      ],
      "name": "Registration",
      "outputs": [
        {
          "internalType": "bool",
          "name": "",
          "type": "bool"
        }
      ],
      "stateMutability": "nonpayable",
      "type": "function"
    },
    {
      "inputs": [
        {
          "internalType": "uint256",
          "name": "i",
          "type": "uint256"
        }
      ],
      "name": "propertyInfo",
      "outputs": [
        {
          "internalType": "string",
          "name": "",
          "type": "string"
        },
        {
          "internalType": "string",
          "name": "",
          "type": "string"
        },
        {
          "internalType": "string",
          "name": "",
          "type": "string"
        },
        {
          "internalType": "bool",
          "name": "",
          "type": "bool"
        },
        {
          "internalType": "address",
          "name": "",
          "type": "address"
        },
        {
          "internalType": "bytes32",
          "name": "",
          "type": "bytes32"
        }
      ],
      "stateMutability": "view",
      "type": "function"
    },
    {
      "inputs": [
        {
          "internalType": "bytes32",
          "name": "id",
          "type": "bytes32"
        }
      ],
      "name": "propertyInfoByBytes",
      "outputs": [
        {
          "internalType": "string",
          "name": "",
          "type": "string"
        },
        {
          "internalType": "string",
          "name": "",
          "type": "string"
        },
        {
          "internalType": "string",
          "name": "",
          "type": "string"
        },
        {
          "internalType": "bool",
          "name": "",
          "type": "bool"
        },
        {
          "internalType": "address",
          "name": "",
          "type": "address"
        }
      ],
      "stateMutability": "view",
      "type": "function"
    },
    {
      "inputs": [],
      "name": "userInfo",
      "outputs": [
        {
          "internalType": "bytes32[]",
          "name": "",
          "type": "bytes32[]"
        }
      ],
      "stateMutability": "view",
      "type": "function"
    },
    {
      "inputs": [
        {
          "internalType": "bytes32",
          "name": "property",
          "type": "bytes32"
        },
        {
          "internalType": "uint24",
          "name": "_value",
          "type": "uint24"
        }
      ],
      "name": "setAvailable",
      "outputs": [],
      "stateMutability": "nonpayable",
      "type": "function"
    },
    {
      "inputs": [
        {
          "internalType": "bytes32",
          "name": "property",
          "type": "bytes32"
        }
      ],
      "name": "buyProperty",
      "outputs": [],
      "stateMutability": "payable",
      "type": "function"
    },
    {
      "inputs": [],
      "name": "paytax",
      "outputs": [],
      "stateMutability": "payable",
      "type": "function"
    }
  ],
  "bytecode": "0x60806040525f805f6101000a81548162ffffff021916908362ffffff16021790555034801561002c575f80fd5b503360025f6101000a81548173ffffffffffffffffffffffffffffffffffffffff021916908373ffffffffffffffffffffffffffffffffffffffff160217905550611bd78061007a5f395ff3fe60806040526004361061006f575f3560e01c8063daa0dfd71161004d578063daa0dfd7146100e1578063dd54feec1461011d578063e5becad814610127578063fa4d66a4146101675761006f565b806309234b0b1461007357806343a6f4ee1461009b578063cad99850146100c5575b5f80fd5b34801561007e575f80fd5b5061009960048036038101906100949190611026565b6101a8565b005b3480156100a6575f80fd5b506100af610273565b6040516100bc919061111b565b60405180910390f35b6100df60048036038101906100da919061113b565b610306565b005b3480156100ec575f80fd5b50610107600480360381019061010291906112fc565b610578565b60405161011491906113ce565b60405180910390f35b6101256107cc565b005b348015610132575f80fd5b5061014d6004803603810190610148919061113b565b61083f565b60405161015e959493929190611481565b60405180910390f35b348015610172575f80fd5b5061018d6004803603810190610188919061151a565b610a88565b60405161019f96959493929190611554565b60405180910390f35b3373ffffffffffffffffffffffffffffffffffffffff1660015f8481526020019081526020015f206003015f9054906101000a900473ffffffffffffffffffffffffffffffffffffffff1673ffffffffffffffffffffffffffffffffffffffff1614610212575f80fd5b6001805f8481526020019081526020015f2060030160146101000a81548160ff0219169083151502179055508060015f8481526020019081526020015f2060030160156101000a81548162ffffff021916908362ffffff1602179055505050565b606060035f3373ffffffffffffffffffffffffffffffffffffffff1673ffffffffffffffffffffffffffffffffffffffff1681526020019081526020015f205f018054806020026020016040519081016040528092919081815260200182805480156102fc57602002820191905f5260205f20905b8154815260200190600101908083116102e8575b5050505050905090565b6001151560015f8381526020019081526020015f2060030160149054906101000a900460ff1615151461036e576040517f08c379a000000000000000000000000000000000000000000000000000000000815260040161036590611612565b60405180910390fd5b600460015f8381526020019081526020015f2060030160159054906101000a900462ffffff1661039e919061168a565b60015f8381526020019081526020015f2060030160159054906101000a900462ffffff166103cc91906116ba565b62ffffff163410156103dc575f80fd5b60015f8281526020019081526020015f206003015f9054906101000a900473ffffffffffffffffffffffffffffffffffffffff1673ffffffffffffffffffffffffffffffffffffffff166108fc60015f8481526020019081526020015f2060030160159054906101000a900462ffffff1662ffffff1690811502906040515f60405180830381858888f1935050505015801561047a573d5f803e3d5ffd5b506104836107cc565b6104c060015f8381526020019081526020015f206003015f9054906101000a900473ffffffffffffffffffffffffffffffffffffffff1682610d12565b3360015f8381526020019081526020015f206003015f6101000a81548173ffffffffffffffffffffffffffffffffffffffff021916908373ffffffffffffffffffffffffffffffffffffffff16021790555060035f3373ffffffffffffffffffffffffffffffffffffffff1673ffffffffffffffffffffffffffffffffffffffff1681526020019081526020015f205f0181908060018154018082558091505060019003905f5260205f20015f909190919091505550565b5f60025f9054906101000a900473ffffffffffffffffffffffffffffffffffffffff1673ffffffffffffffffffffffffffffffffffffffff163373ffffffffffffffffffffffffffffffffffffffff1614610608576040517f08c379a00000000000000000000000000000000000000000000000000000000081526004016105ff9061173a565b60405180910390fd5b5f805f9054906101000a900462ffffff164260405160200161062b9291906117ac565b6040516020818303038152906040528051906020012090508560015f8381526020019081526020015f205f01908161066391906119d1565b508460015f8381526020019081526020015f20600101908161068591906119d1565b508360015f8381526020019081526020015f2060020190816106a791906119d1565b508260015f8381526020019081526020015f206003015f6101000a81548173ffffffffffffffffffffffffffffffffffffffff021916908373ffffffffffffffffffffffffffffffffffffffff16021790555060035f8473ffffffffffffffffffffffffffffffffffffffff1673ffffffffffffffffffffffffffffffffffffffff1681526020019081526020015f205f0181908060018154018082558091505060019003905f5260205f20015f9091909190915055600481908060018154018082558091505060019003905f5260205f20015f90919091909150555f8081819054906101000a900462ffffff16809291906107a290611aa0565b91906101000a81548162ffffff021916908362ffffff160217905550506001915050949350505050565b60025f9054906101000a900473ffffffffffffffffffffffffffffffffffffffff1673ffffffffffffffffffffffffffffffffffffffff166108fc6002346108149190611aca565b90811502906040515f60405180830381858888f1935050505015801561083c573d5f803e3d5ffd5b50565b60608060605f8060015f8781526020019081526020015f205f0160015f8881526020019081526020015f2060010160015f8981526020019081526020015f2060020160015f8a81526020019081526020015f2060030160149054906101000a900460ff1660015f8b81526020019081526020015f206003015f9054906101000a900473ffffffffffffffffffffffffffffffffffffffff168480546108e390611804565b80601f016020809104026020016040519081016040528092919081815260200182805461090f90611804565b801561095a5780601f106109315761010080835404028352916020019161095a565b820191905f5260205f20905b81548152906001019060200180831161093d57829003601f168201915b5050505050945083805461096d90611804565b80601f016020809104026020016040519081016040528092919081815260200182805461099990611804565b80156109e45780601f106109bb576101008083540402835291602001916109e4565b820191905f5260205f20905b8154815290600101906020018083116109c757829003601f168201915b505050505093508280546109f790611804565b80601f0160208091040260200160405190810160405280929190818152602001828054610a2390611804565b8015610a6e5780601f10610a4557610100808354040283529160200191610a6e565b820191905f5260205f20905b815481529060010190602001808311610a5157829003601f168201915b505050505092509450945094509450945091939590929450565b60608060605f805f8060048881548110610aa557610aa4611afa565b5b905f5260205f200154905060015f8281526020019081526020015f205f0160015f8381526020019081526020015f2060010160015f8481526020019081526020015f2060020160015f8581526020019081526020015f2060030160149054906101000a900460ff1660015f8681526020019081526020015f206003015f9054906101000a900473ffffffffffffffffffffffffffffffffffffffff1660048d81548110610b5557610b54611afa565b5b905f5260205f200154858054610b6a90611804565b80601f0160208091040260200160405190810160405280929190818152602001828054610b9690611804565b8015610be15780601f10610bb857610100808354040283529160200191610be1565b820191905f5260205f20905b815481529060010190602001808311610bc457829003601f168201915b50505050509550848054610bf490611804565b80601f0160208091040260200160405190810160405280929190818152602001828054610c2090611804565b8015610c6b5780601f10610c4257610100808354040283529160200191610c6b565b820191905f5260205f20905b815481529060010190602001808311610c4e57829003601f168201915b50505050509450838054610c7e90611804565b80601f0160208091040260200160405190810160405280929190818152602001828054610caa90611804565b8015610cf55780601f10610ccc57610100808354040283529160200191610cf5565b820191905f5260205f20905b815481529060010190602001808311610cd857829003601f168201915b505050505093509650965096509650965096505091939550919395565b5f610d1d8284610ed3565b905060035f8473ffffffffffffffffffffffffffffffffffffffff1673ffffffffffffffffffffffffffffffffffffffff1681526020019081526020015f205f01600160035f8673ffffffffffffffffffffffffffffffffffffffff1673ffffffffffffffffffffffffffffffffffffffff1681526020019081526020015f205f0180549050610dad9190611b27565b81548110610dbe57610dbd611afa565b5b905f5260205f20015460035f8573ffffffffffffffffffffffffffffffffffffffff1673ffffffffffffffffffffffffffffffffffffffff1681526020019081526020015f205f018281548110610e1857610e17611afa565b5b905f5260205f20018190555060035f8473ffffffffffffffffffffffffffffffffffffffff1673ffffffffffffffffffffffffffffffffffffffff1681526020019081526020015f205f01600160035f8673ffffffffffffffffffffffffffffffffffffffff1673ffffffffffffffffffffffffffffffffffffffff1681526020019081526020015f205f0180549050610eb29190611b27565b81548110610ec357610ec2611afa565b5b905f5260205f20015f9055505050565b5f805f90505b60035f8473ffffffffffffffffffffffffffffffffffffffff1673ffffffffffffffffffffffffffffffffffffffff1681526020019081526020015f205f0180549050811015610f9f578360035f8573ffffffffffffffffffffffffffffffffffffffff1673ffffffffffffffffffffffffffffffffffffffff1681526020019081526020015f205f018281548110610f7557610f74611afa565b5b905f5260205f20015403610f8c5780915050610fa4565b8080610f9790611b5a565b915050610ed9565b809150505b92915050565b5f604051905090565b5f80fd5b5f80fd5b5f819050919050565b610fcd81610fbb565b8114610fd7575f80fd5b50565b5f81359050610fe881610fc4565b92915050565b5f62ffffff82169050919050565b61100581610fee565b811461100f575f80fd5b50565b5f8135905061102081610ffc565b92915050565b5f806040838503121561103c5761103b610fb3565b5b5f61104985828601610fda565b925050602061105a85828601611012565b9150509250929050565b5f81519050919050565b5f82825260208201905092915050565b5f819050602082019050919050565b61109681610fbb565b82525050565b5f6110a7838361108d565b60208301905092915050565b5f602082019050919050565b5f6110c982611064565b6110d3818561106e565b93506110de8361107e565b805f5b8381101561110e5781516110f5888261109c565b9750611100836110b3565b9250506001810190506110e1565b5085935050505092915050565b5f6020820190508181035f83015261113381846110bf565b905092915050565b5f602082840312156111505761114f610fb3565b5b5f61115d84828501610fda565b91505092915050565b5f80fd5b5f80fd5b5f601f19601f8301169050919050565b7f4e487b71000000000000000000000000000000000000000000000000000000005f52604160045260245ffd5b6111b48261116e565b810181811067ffffffffffffffff821117156111d3576111d261117e565b5b80604052505050565b5f6111e5610faa565b90506111f182826111ab565b919050565b5f67ffffffffffffffff8211156112105761120f61117e565b5b6112198261116e565b9050602081019050919050565b828183375f83830152505050565b5f611246611241846111f6565b6111dc565b9050828152602081018484840111156112625761126161116a565b5b61126d848285611226565b509392505050565b5f82601f83011261128957611288611166565b5b8135611299848260208601611234565b91505092915050565b5f73ffffffffffffffffffffffffffffffffffffffff82169050919050565b5f6112cb826112a2565b9050919050565b6112db816112c1565b81146112e5575f80fd5b50565b5f813590506112f6816112d2565b92915050565b5f805f806080858703121561131457611313610fb3565b5b5f85013567ffffffffffffffff81111561133157611330610fb7565b5b61133d87828801611275565b945050602085013567ffffffffffffffff81111561135e5761135d610fb7565b5b61136a87828801611275565b935050604085013567ffffffffffffffff81111561138b5761138a610fb7565b5b61139787828801611275565b92505060606113a8878288016112e8565b91505092959194509250565b5f8115159050919050565b6113c8816113b4565b82525050565b5f6020820190506113e15f8301846113bf565b92915050565b5f81519050919050565b5f82825260208201905092915050565b5f5b8381101561141e578082015181840152602081019050611403565b5f8484015250505050565b5f611433826113e7565b61143d81856113f1565b935061144d818560208601611401565b6114568161116e565b840191505092915050565b5f61146b826112a2565b9050919050565b61147b81611461565b82525050565b5f60a0820190508181035f8301526114998188611429565b905081810360208301526114ad8187611429565b905081810360408301526114c18186611429565b90506114d060608301856113bf565b6114dd6080830184611472565b9695505050505050565b5f819050919050565b6114f9816114e7565b8114611503575f80fd5b50565b5f81359050611514816114f0565b92915050565b5f6020828403121561152f5761152e610fb3565b5b5f61153c84828501611506565b91505092915050565b61154e81610fbb565b82525050565b5f60c0820190508181035f83015261156c8189611429565b905081810360208301526115808188611429565b905081810360408301526115948187611429565b90506115a360608301866113bf565b6115b06080830185611472565b6115bd60a0830184611545565b979650505050505050565b7f70726f7065727479206e6f7420617661696c61626c65000000000000000000005f82015250565b5f6115fc6016836113f1565b9150611607826115c8565b602082019050919050565b5f6020820190508181035f830152611629816115f0565b9050919050565b7f4e487b71000000000000000000000000000000000000000000000000000000005f52601260045260245ffd5b7f4e487b71000000000000000000000000000000000000000000000000000000005f52601160045260245ffd5b5f61169482610fee565b915061169f83610fee565b9250826116af576116ae611630565b5b828204905092915050565b5f6116c482610fee565b91506116cf83610fee565b9250828201905062ffffff8111156116ea576116e961165d565b5b92915050565b7f6e6f2072696768747300000000000000000000000000000000000000000000005f82015250565b5f6117246009836113f1565b915061172f826116f0565b602082019050919050565b5f6020820190508181035f83015261175181611718565b9050919050565b5f8160e81b9050919050565b5f61176e82611758565b9050919050565b61178661178182610fee565b611764565b82525050565b5f819050919050565b6117a66117a1826114e7565b61178c565b82525050565b5f6117b78285611775565b6003820191506117c78284611795565b6020820191508190509392505050565b7f4e487b71000000000000000000000000000000000000000000000000000000005f52602260045260245ffd5b5f600282049050600182168061181b57607f821691505b60208210810361182e5761182d6117d7565b5b50919050565b5f819050815f5260205f209050919050565b5f6020601f8301049050919050565b5f82821b905092915050565b5f600883026118907fffffffffffffffffffffffffffffffffffffffffffffffffffffffffffffffff82611855565b61189a8683611855565b95508019841693508086168417925050509392505050565b5f819050919050565b5f6118d56118d06118cb846114e7565b6118b2565b6114e7565b9050919050565b5f819050919050565b6118ee836118bb565b6119026118fa826118dc565b848454611861565b825550505050565b5f90565b61191661190a565b6119218184846118e5565b505050565b5b81811015611944576119395f8261190e565b600181019050611927565b5050565b601f8211156119895761195a81611834565b61196384611846565b81016020851015611972578190505b61198661197e85611846565b830182611926565b50505b505050565b5f82821c905092915050565b5f6119a95f198460080261198e565b1980831691505092915050565b5f6119c1838361199a565b9150826002028217905092915050565b6119da826113e7565b67ffffffffffffffff8111156119f3576119f261117e565b5b6119fd8254611804565b611a08828285611948565b5f60209050601f831160018114611a39575f8415611a27578287015190505b611a3185826119b6565b865550611a98565b601f198416611a4786611834565b5f5b82811015611a6e57848901518255600182019150602085019450602081019050611a49565b86831015611a8b5784890151611a87601f89168261199a565b8355505b6001600288020188555050505b505050505050565b5f611aaa82610fee565b915062ffffff8203611abf57611abe61165d565b5b600182019050919050565b5f611ad4826114e7565b9150611adf836114e7565b925082611aef57611aee611630565b5b828204905092915050565b7f4e487b71000000000000000000000000000000000000000000000000000000005f52603260045260245ffd5b5f611b31826114e7565b9150611b3c836114e7565b9250828203905081811115611b5457611b5361165d565b5b92915050565b5f611b64826114e7565b91507fffffffffffffffffffffffffffffffffffffffffffffffffffffffffffffffff8203611b9657611b9561165d565b5b60018201905091905056fea26469706673582212205b201470e152536e42f0c7720e1670ee55971bf7e9d6d4d1634d39ef01e7485d64736f6c63430008140033",
  "immutableReferences": {},
  "source": "/// SPDX-License-Identifier: UNLICENSED\npragma solidity ^0.8.0;\n\n//properties Details\ncontract propertiesRegistration{\n\n    struct user{\n        bytes32[] assets;\n    }\n\n    struct property{\n        string city;\n        string district;\n        string detail;\n        address payable  CurrentOwner;\n        bool isAvailable;\n        uint24 value;\n\n    }\n\n\n\n\n\n    uint24 number=0;\n    mapping(bytes32 => property) properties;\n    address payable authority;\n    mapping(address => user) users;\n    bytes32[] propertiesList;\n\n    //contract owner\n    constructor() {\n        authority = payable(msg.sender);\n    }\n    modifier onlyOwner {\n        require(msg.sender == authority,\"no rights\");\n        _;\n    }\n\n\n    //Registration of properties details.\n    function Registration(string memory _city,string memory _district,\n        string memory _detail, address payable _OwnerAddress\n        ) public onlyOwner returns(bool) {\n\n        bytes32 id=keccak256(abi.encodePacked(number, block.timestamp));\n        properties[id].city = _city;\n        properties[id].district = _district;\n        properties[id].detail = _detail;\n        properties[id].CurrentOwner= _OwnerAddress;\n        users[_OwnerAddress].assets.push(id);\n        propertiesList.push(id);\n        number++;\n        return true;\n    }\n\n    function propertyInfo(uint i) public view returns(string memory,string memory,string memory,bool,address,bytes32){\n        bytes32 id=propertiesList[i];\n        return(properties[id].city,properties[id].district,properties[id].detail,properties[id].isAvailable,properties[id].CurrentOwner,propertiesList[i]);\n    }\n\n    function propertyInfoByBytes(bytes32 id) public view returns(string memory,string memory,string memory,bool,address){\n        return(properties[id].city,properties[id].district,properties[id].detail,properties[id].isAvailable,properties[id].CurrentOwner);\n    }\n\n\n\n    function userInfo()public view returns(bytes32[] memory){\n        return (users[msg.sender].assets);\n    }\n\n\n    function setAvailable(bytes32 property,uint24 _value)public{\n        require(properties[property].CurrentOwner == msg.sender);\n        properties[property].isAvailable=true;\n        properties[property].value=_value;\n    }\n    //buying the approved property\n    function buyProperty(bytes32 property)public payable{\n        require(properties[property].isAvailable == true, \"property not available\");\n        require(msg.value >= (properties[property].value+((properties[property].value)/4)));\n        properties[property].CurrentOwner.transfer(properties[property].value);\n        paytax();\n        removeOwnership(properties[property].CurrentOwner,property);\n        properties[property].CurrentOwner=payable(msg.sender);\n        users[msg.sender].assets.push(property);\n\n    }\n\n    function paytax()public payable {\n        authority.transfer(msg.value/2);\n    }\n    //removing the ownership of seller for the properties. and it is called by the buyProperty function\n    function removeOwnership(address buyFrom,bytes32 id)private{\n        uint index = findId(id,buyFrom);\n        users[buyFrom].assets[index]=users[buyFrom].assets[users[buyFrom].assets.length-1];\n        delete users[buyFrom].assets[users[buyFrom].assets.length-1];\n\n    }\n    //for finding the index of a perticular id\n    function findId(bytes32 id,address user)private  view returns(uint){\n        uint i;\n        for(i=0;i<users[user].assets.length;i++){\n            if(users[user].assets[i] == id)\n                return i;\n        }\n        return i;\n    }\n}",
  "sourcePath": "/Users/ywen/Desktop/23T2/comp6452/project2/land-title/contracts/land1.sol",
  "compiler": {
    "name": "solc",
    "version": "0.8.20+commit.a1b79de6.Emscripten.clang"
  },
  "schemaVersion": "3.4.14",
  "updatedAt": "2023-07-16T11:45:25.975Z",
  "devdoc": {
    "kind": "dev",
    "methods": {},
    "version": 1
  },
  "userdoc": {
    "kind": "user",
    "methods": {},
    "version": 1
  }
}